{
  "_format": "hh-sol-artifact-1",
  "contractName": "SwapToken",
  "sourceName": "contracts/SwapToken.sol",
  "abi": [
    {
      "inputs": [
        {
          "internalType": "contract ISwapRouter",
          "name": "_swapRouter",
          "type": "address"
        }
      ],
      "stateMutability": "nonpayable",
      "type": "constructor"
    },
    {
      "inputs": [],
      "name": "DAI",
      "outputs": [
        {
          "internalType": "address",
          "name": "",
          "type": "address"
        }
      ],
      "stateMutability": "view",
      "type": "function"
    },
    {
      "inputs": [],
      "name": "USDC",
      "outputs": [
        {
          "internalType": "address",
          "name": "",
          "type": "address"
        }
      ],
      "stateMutability": "view",
      "type": "function"
    },
    {
      "inputs": [],
      "name": "WETH9",
      "outputs": [
        {
          "internalType": "address",
          "name": "",
          "type": "address"
        }
      ],
      "stateMutability": "view",
      "type": "function"
    },
    {
      "inputs": [
        {
          "internalType": "uint256",
          "name": "amount",
          "type": "uint256"
        }
      ],
      "name": "swapExactInputSingle",
      "outputs": [
        {
          "internalType": "uint256",
          "name": "amountOut",
          "type": "uint256"
        }
      ],
      "stateMutability": "nonpayable",
      "type": "function"
    },
    {
      "inputs": [
        {
          "internalType": "uint256",
          "name": "amountOut",
          "type": "uint256"
        },
        {
          "internalType": "uint256",
          "name": "amountInMaximum",
          "type": "uint256"
        }
      ],
      "name": "swapExactOutputSingle",
      "outputs": [
        {
          "internalType": "uint256",
          "name": "amountIn",
          "type": "uint256"
        }
      ],
      "stateMutability": "nonpayable",
      "type": "function"
    },
    {
      "inputs": [],
      "name": "swapRouter",
      "outputs": [
        {
          "internalType": "contract ISwapRouter",
          "name": "",
          "type": "address"
        }
      ],
      "stateMutability": "view",
      "type": "function"
    }
  ],
  "bytecode": "0x60a060405234801561001057600080fd5b5060405161097738038061097783398101604081905261002f91610040565b6001600160a01b0316608052610070565b60006020828403121561005257600080fd5b81516001600160a01b038116811461006957600080fd5b9392505050565b6080516108ca6100ad6000396000818160e00152818161016c01528181610203015281816102c60152818161035d015261040101526108ca6000f3fe608060405234801561001057600080fd5b50600436106100625760003560e01c80634aa4a4fc1461006757806373bd43ad1461009f57806389a30271146100c0578063c31c9c07146100db578063c4b69a1814610102578063e0bab4c414610115575b600080fd5b61008273c02aaa39b223fe8d0a0e5c4f27ead9083c756cc281565b6040516001600160a01b0390911681526020015b60405180910390f35b6100b26100ad36600461075e565b610130565b604051908152602001610096565b61008273a0b86991c6218b36c1d19d4a2e9eb0ce3606eb4881565b6100827f000000000000000000000000000000000000000000000000000000000000000081565b6100b2610110366004610777565b61028a565b610082736b175474e89094c44da98b954eedeac495271d0f81565b600061015273c02aaa39b223fe8d0a0e5c4f27ead9083c756cc2333085610456565b61019173c02aaa39b223fe8d0a0e5c4f27ead9083c756cc27f000000000000000000000000000000000000000000000000000000000000000084610565565b604080516101008101825273c02aaa39b223fe8d0a0e5c4f27ead9083c756cc28152736b175474e89094c44da98b954eedeac495271d0f6020820152610bb88183015233606082015242608082015260a08101849052600060c0820181905260e0820152905163414bf38960e01b81527f00000000000000000000000000000000000000000000000000000000000000006001600160a01b03169063414bf38990610240908490600401610799565b6020604051808303816000875af115801561025f573d6000803e3d6000fd5b505050506040513d601f19601f820116820180604052508101906102839190610809565b9392505050565b60006102ac73c02aaa39b223fe8d0a0e5c4f27ead9083c756cc2333085610456565b6102eb73c02aaa39b223fe8d0a0e5c4f27ead9083c756cc27f000000000000000000000000000000000000000000000000000000000000000084610565565b604080516101008101825273c02aaa39b223fe8d0a0e5c4f27ead9083c756cc28152736b175474e89094c44da98b954eedeac495271d0f6020820152610bb88183015233606082015242608082015260a0810185905260c08101849052600060e08201529051631b67c43360e31b81527f00000000000000000000000000000000000000000000000000000000000000006001600160a01b03169063db3e21989061039a908490600401610799565b6020604051808303816000875af11580156103b9573d6000803e3d6000fd5b505050506040513d601f19601f820116820180604052508101906103dd9190610809565b91508282101561044f5761042773c02aaa39b223fe8d0a0e5c4f27ead9083c756cc27f00000000000000000000000000000000000000000000000000000000000000006000610565565b61044f73c02aaa39b223fe8d0a0e5c4f27ead9083c756cc23361044a8587610822565b610665565b5092915050565b604080516001600160a01b0385811660248301528481166044830152606480830185905283518084039091018152608490920183526020820180516001600160e01b03166323b872dd60e01b17905291516000928392908816916104ba9190610843565b6000604051808303816000865af19150503d80600081146104f7576040519150601f19603f3d011682016040523d82523d6000602084013e6104fc565b606091505b50915091508180156105265750805115806105265750808060200190518101906105269190610872565b61055d5760405162461bcd60e51b815260206004820152600360248201526229aa2360e91b60448201526064015b60405180910390fd5b505050505050565b604080516001600160a01b038481166024830152604480830185905283518084039091018152606490920183526020820180516001600160e01b031663095ea7b360e01b17905291516000928392908716916105c19190610843565b6000604051808303816000865af19150503d80600081146105fe576040519150601f19603f3d011682016040523d82523d6000602084013e610603565b606091505b509150915081801561062d57508051158061062d57508080602001905181019061062d9190610872565b61065e5760405162461bcd60e51b8152602060048201526002602482015261534160f01b6044820152606401610554565b5050505050565b604080516001600160a01b038481166024830152604480830185905283518084039091018152606490920183526020820180516001600160e01b031663a9059cbb60e01b17905291516000928392908716916106c19190610843565b6000604051808303816000865af19150503d80600081146106fe576040519150601f19603f3d011682016040523d82523d6000602084013e610703565b606091505b509150915081801561072d57508051158061072d57508080602001905181019061072d9190610872565b61065e5760405162461bcd60e51b815260206004820152600260248201526114d560f21b6044820152606401610554565b60006020828403121561077057600080fd5b5035919050565b6000806040838503121561078a57600080fd5b50508035926020909101359150565b6101008101610803828480516001600160a01b03908116835260208083015182169084015260408083015162ffffff16908401526060808301518216908401526080808301519084015260a0828101519084015260c0808301519084015260e09182015116910152565b92915050565b60006020828403121561081b57600080fd5b5051919050565b8181038181111561080357634e487b7160e01b600052601160045260246000fd5b6000825160005b81811015610864576020818601810151858301520161084a565b506000920191825250919050565b60006020828403121561088457600080fd5b8151801515811461028357600080fdfea2646970667358221220aa1006826f842515520636449db8b881fd1cab2f72bd63e5eec98b77e573e1b564736f6c63430008110033",
  "linkReferences": {},
  "deployedLinkReferences": {}
}